:1000000071C0000079C0000077C0000075C000001A
:1000100073C0000071C000006FC000006DC0000020
:100020006BC0000069C0000067C0000065C0000030
:1000300063C0000061C000005FC000005DC0000040
:100040005BC0000059C0000057C0000055C0000050
:1000500053C0000051C000004FC000004DC0000060
:100060004BC0000049C0000047C0000045C0000070
:1000700043C0000041C000003FC000003DC0000080
:100080003BC0000039C0000037C0000035C0000090
:1000900033C0000031C000002FC000002DC00000A0
:1000A0002BC0000029C0000027C0000025C00000B0
:1000B00023C0000021C000001FC000001DC00000C0
:1000C0001BC0000019C0000017C0000015C00000D0
:1000D00013C0000011C000000FC000000DC00000E0
:1000E0000BC0000011241FBECFEFD1E2DEBFCDBF99
:1000F00000E00CBF04D074C083CF1DC00895FDDFA5
:100100008FEF81B984B5876084BD04B400FC04C05E
:1001100084B58EEF82B9F9CF04B400FE84B504B47F
:1001200000FE04C084B587EF82B9EFCF04B400FEAF
:10013000ECCF84B5EACF8FE3809365008FEE809398
:10014000640081B111B882B18FEF82B994B114B853
:1001500095B185B997B117B898B188B99AB11AB85D
:100160009BB18BB99DB11DB89EB18EB990B310BA39
:1001700091B381BB93B3907C93BB94B39F6394BBC7
:10018000E1E0F1E090811082E2E0F1E09081808393
:10019000E4E0F1E090811082E5E0F1E0908180837D
:1001A000E7E0F1E090811082E8E0F1E09081808367
:1001B000EAE0F1E090811082EBE0F1E09081808351
:1001C00040E060E881E690E003D013BE15BE0895DC
:1001D0002FB7F8941BBEFC01608340832FBF0895A6
:0401E000F894FFCFC1
:00000001FF
